{
  "contractName": "NoFilter",
  "abi": [
    {
      "inputs": [],
      "payable": false,
      "stateMutability": "nonpayable",
      "type": "constructor"
    },
    {
      "anonymous": false,
      "inputs": [
        {
          "indexed": true,
          "name": "author",
          "type": "address"
        },
        {
          "indexed": true,
          "name": "id",
          "type": "uint256"
        },
        {
          "indexed": false,
          "name": "tags",
          "type": "bytes"
        },
        {
          "indexed": false,
          "name": "postTimestamp",
          "type": "uint256"
        },
        {
          "indexed": false,
          "name": "title",
          "type": "bytes"
        },
        {
          "indexed": false,
          "name": "text",
          "type": "bytes"
        }
      ],
      "name": "PostContent",
      "type": "event"
    },
    {
      "anonymous": false,
      "inputs": [
        {
          "indexed": true,
          "name": "commenter",
          "type": "address"
        },
        {
          "indexed": true,
          "name": "postId",
          "type": "uint256"
        },
        {
          "indexed": false,
          "name": "comment",
          "type": "bytes"
        },
        {
          "indexed": false,
          "name": "parentComment",
          "type": "uint256"
        },
        {
          "indexed": false,
          "name": "commentTimestamp",
          "type": "uint256"
        },
        {
          "indexed": false,
          "name": "commentId",
          "type": "uint256"
        }
      ],
      "name": "CommentCreated",
      "type": "event"
    },
    {
      "anonymous": false,
      "inputs": [
        {
          "indexed": true,
          "name": "depositer",
          "type": "address"
        },
        {
          "indexed": false,
          "name": "value",
          "type": "uint256"
        }
      ],
      "name": "Deposited",
      "type": "event"
    },
    {
      "anonymous": false,
      "inputs": [
        {
          "indexed": true,
          "name": "taker",
          "type": "address"
        },
        {
          "indexed": false,
          "name": "value",
          "type": "uint256"
        }
      ],
      "name": "Withdrawal",
      "type": "event"
    },
    {
      "anonymous": false,
      "inputs": [
        {
          "indexed": true,
          "name": "donator",
          "type": "address"
        },
        {
          "indexed": true,
          "name": "donationValue",
          "type": "uint256"
        },
        {
          "indexed": false,
          "name": "donationTimestamp",
          "type": "uint256"
        },
        {
          "indexed": false,
          "name": "postid",
          "type": "uint256"
        }
      ],
      "name": "DonationMade",
      "type": "event"
    },
    {
      "anonymous": false,
      "inputs": [
        {
          "indexed": true,
          "name": "user",
          "type": "address"
        },
        {
          "indexed": true,
          "name": "username",
          "type": "bytes32"
        }
      ],
      "name": "UsernameCreated",
      "type": "event"
    },
    {
      "constant": false,
      "inputs": [
        {
          "name": "title",
          "type": "bytes"
        },
        {
          "name": "text",
          "type": "bytes"
        },
        {
          "name": "tags",
          "type": "bytes"
        }
      ],
      "name": "CreatePost",
      "outputs": [],
      "payable": false,
      "stateMutability": "nonpayable",
      "type": "function"
    },
    {
      "constant": true,
      "inputs": [
        {
          "name": "postId",
          "type": "uint256"
        }
      ],
      "name": "getOwner",
      "outputs": [
        {
          "name": "",
          "type": "address"
        }
      ],
      "payable": false,
      "stateMutability": "view",
      "type": "function"
    },
    {
      "constant": false,
      "inputs": [
        {
          "name": "postId",
          "type": "uint256"
        }
      ],
      "name": "UpvotePost",
      "outputs": [],
      "payable": false,
      "stateMutability": "nonpayable",
      "type": "function"
    },
    {
      "constant": false,
      "inputs": [
        {
          "name": "postId",
          "type": "uint256"
        }
      ],
      "name": "DownvotePost",
      "outputs": [],
      "payable": false,
      "stateMutability": "nonpayable",
      "type": "function"
    },
    {
      "constant": true,
      "inputs": [
        {
          "name": "postId",
          "type": "uint256"
        }
      ],
      "name": "getUpVotes",
      "outputs": [
        {
          "name": "",
          "type": "uint256"
        }
      ],
      "payable": false,
      "stateMutability": "view",
      "type": "function"
    },
    {
      "constant": true,
      "inputs": [
        {
          "name": "postId",
          "type": "uint256"
        }
      ],
      "name": "getDownVotes",
      "outputs": [
        {
          "name": "",
          "type": "uint256"
        }
      ],
      "payable": false,
      "stateMutability": "view",
      "type": "function"
    },
    {
      "constant": true,
      "inputs": [
        {
          "name": "postId",
          "type": "uint256"
        },
        {
          "name": "voter",
          "type": "address"
        }
      ],
      "name": "getVoterData",
      "outputs": [
        {
          "name": "",
          "type": "uint256"
        }
      ],
      "payable": false,
      "stateMutability": "view",
      "type": "function"
    },
    {
      "constant": false,
      "inputs": [
        {
          "name": "text",
          "type": "bytes"
        },
        {
          "name": "postId",
          "type": "uint256"
        },
        {
          "name": "parentComment",
          "type": "uint256"
        }
      ],
      "name": "PostComment",
      "outputs": [],
      "payable": false,
      "stateMutability": "nonpayable",
      "type": "function"
    },
    {
      "constant": false,
      "inputs": [
        {
          "name": "postId",
          "type": "uint256"
        },
        {
          "name": "commendId",
          "type": "uint256"
        }
      ],
      "name": "UpvoteComment",
      "outputs": [],
      "payable": false,
      "stateMutability": "nonpayable",
      "type": "function"
    },
    {
      "constant": false,
      "inputs": [
        {
          "name": "postId",
          "type": "uint256"
        },
        {
          "name": "commendId",
          "type": "uint256"
        }
      ],
      "name": "DownvoteComment",
      "outputs": [],
      "payable": false,
      "stateMutability": "nonpayable",
      "type": "function"
    },
    {
      "constant": true,
      "inputs": [
        {
          "name": "postId",
          "type": "uint256"
        },
        {
          "name": "commendId",
          "type": "uint256"
        }
      ],
      "name": "getCommentUpVotes",
      "outputs": [
        {
          "name": "",
          "type": "uint256"
        }
      ],
      "payable": false,
      "stateMutability": "view",
      "type": "function"
    },
    {
      "constant": true,
      "inputs": [
        {
          "name": "postId",
          "type": "uint256"
        },
        {
          "name": "commendId",
          "type": "uint256"
        }
      ],
      "name": "getCommentDownVotes",
      "outputs": [
        {
          "name": "",
          "type": "uint256"
        }
      ],
      "payable": false,
      "stateMutability": "view",
      "type": "function"
    },
    {
      "constant": true,
      "inputs": [
        {
          "name": "postId",
          "type": "uint256"
        },
        {
          "name": "commendId",
          "type": "uint256"
        },
        {
          "name": "commenter",
          "type": "address"
        }
      ],
      "name": "getCommentVoterData",
      "outputs": [
        {
          "name": "",
          "type": "uint256"
        }
      ],
      "payable": false,
      "stateMutability": "view",
      "type": "function"
    },
    {
      "constant": true,
      "inputs": [],
      "name": "getPostCounter",
      "outputs": [
        {
          "name": "",
          "type": "uint256"
        }
      ],
      "payable": false,
      "stateMutability": "view",
      "type": "function"
    },
    {
      "constant": false,
      "inputs": [],
      "name": "deposit",
      "outputs": [],
      "payable": true,
      "stateMutability": "payable",
      "type": "function"
    },
    {
      "constant": false,
      "inputs": [
        {
          "name": "withdrawall",
          "type": "bool"
        },
        {
          "name": "trxAmmount",
          "type": "uint256"
        }
      ],
      "name": "withdraw",
      "outputs": [],
      "payable": false,
      "stateMutability": "nonpayable",
      "type": "function"
    },
    {
      "constant": false,
      "inputs": [
        {
          "name": "postId",
          "type": "uint256"
        },
        {
          "name": "donationValue",
          "type": "uint256"
        }
      ],
      "name": "makeDonation",
      "outputs": [],
      "payable": false,
      "stateMutability": "nonpayable",
      "type": "function"
    },
    {
      "constant": true,
      "inputs": [
        {
          "name": "postId",
          "type": "uint256"
        }
      ],
      "name": "getPostDonations",
      "outputs": [
        {
          "name": "",
          "type": "uint256"
        }
      ],
      "payable": false,
      "stateMutability": "view",
      "type": "function"
    },
    {
      "constant": true,
      "inputs": [
        {
          "name": "user",
          "type": "address"
        }
      ],
      "name": "getBalance",
      "outputs": [
        {
          "name": "",
          "type": "uint256"
        }
      ],
      "payable": false,
      "stateMutability": "view",
      "type": "function"
    },
    {
      "constant": false,
      "inputs": [
        {
          "name": "username",
          "type": "bytes32"
        }
      ],
      "name": "SetUsername",
      "outputs": [],
      "payable": false,
      "stateMutability": "nonpayable",
      "type": "function"
    },
    {
      "constant": true,
      "inputs": [
        {
          "name": "user",
          "type": "address"
        }
      ],
      "name": "getUsername",
      "outputs": [
        {
          "name": "",
          "type": "bytes32"
        }
      ],
      "payable": false,
      "stateMutability": "view",
      "type": "function"
    },
    {
      "constant": true,
      "inputs": [],
      "name": "getSenderAddress",
      "outputs": [
        {
          "name": "",
          "type": "address"
        }
      ],
      "payable": false,
      "stateMutability": "view",
      "type": "function"
    }
  ],
  "bytecode": "0x608060405234801561001057600080fd5b5060008055611908806100246000396000f3006080604052600436106101275763ffffffff7c01000000000000000000000000000000000000000000000000000000006000350416630cbe957e811461012c5780630d898f48146102035780630dad041e1461022d57806335c8d82b1461024557806342948e181461026957806349ad53ee1461029a5780634e595e3a146102c1578063582e0488146102dc578063623560af146102f157806368b6883e1461030c5780637bc43f561461036e5780637dc1aae4146103895780637e6ab916146103a4578063984c0450146103bc578063a0a5c2b6146103d9578063a4245e67146103f4578063c41a360a1461040c578063ce43c03214610424578063d0e30db014610445578063d121c61a1461044d578063e6e5533314610465578063f8b2cb4f1461047d575b600080fd5b34801561013857600080fd5b506040805160206004803580820135601f810184900484028501840190955284845261020194369492936024939284019190819084018382808284375050604080516020601f89358b018035918201839004830284018301909452808352979a99988101979196509182019450925082915084018382808284375050604080516020601f89358b018035918201839004830284018301909452808352979a99988101979196509182019450925082915084018382808284375094975061049e9650505050505050565b005b34801561020f57600080fd5b5061021b600435610783565b60408051918252519081900360200190f35b34801561023957600080fd5b50610201600435610795565b34801561025157600080fd5b5061021b600435600160a060020a03602435166108e7565b34801561027557600080fd5b5061027e61090c565b60408051600160a060020a039092168252519081900360200190f35b3480156102a657600080fd5b5061021b600435602435600160a060020a0360443516610910565b3480156102cd57600080fd5b5061020160043560243561093f565b3480156102e857600080fd5b5061021b610b96565b3480156102fd57600080fd5b50610201600435602435610b9c565b34801561031857600080fd5b506040805160206004803580820135601f8101849004840285018401909552848452610201943694929360249392840191908190840183828082843750949750508435955050506020909201359150610d2f9050565b34801561037a57600080fd5b50610201600435602435610fb4565b34801561039557600080fd5b5061021b60043560243561120a565b3480156103b057600080fd5b5061021b600435611227565b3480156103c857600080fd5b506102016004351515602435611239565b3480156103e557600080fd5b5061021b600435602435611460565b34801561040057600080fd5b5061021b60043561147d565b34801561041857600080fd5b5061027e60043561148f565b34801561043057600080fd5b5061021b600160a060020a03600435166114aa565b6102016114c5565b34801561045957600080fd5b5061020160043561156c565b34801561047157600080fd5b5061020160043561172a565b34801561048957600080fd5b5061021b600160a060020a0360043516611881565b60008084511115156104fa576040805160e560020a62461bcd02815260206004820152600d60248201527f496e76616c6964207469746c6500000000000000000000000000000000000000604482015290519081900360640190fd5b8251600010610553576040805160e560020a62461bcd02815260206004820152600c60248201527f496e76616c696420746578740000000000000000000000000000000000000000604482015290519081900360640190fd5b81516000106105ac576040805160e560020a62461bcd02815260206004820152600c60248201527f496e76616c696420746167730000000000000000000000000000000000000000604482015290519081900360640190fd5b5060008054808252600160208181526040808520805473ffffffffffffffffffffffffffffffffffffffff191633908117909155600283528186208490558086526004835281862085875283528186209390935580514281840181905260808083528851908301528751959687967fdc220f0be468e8336935034fc4829e5d0e772978345b486fa47d2d09bd32cc11958a9593948d948d949193849391840192606085019260a0860192908b01918190849084905b83811015610679578181015183820152602001610661565b50505050905090810190601f1680156106a65780820380516001836020036101000a031916815260200191505b50848103835286518152865160209182019188019080838360005b838110156106d95781810151838201526020016106c1565b50505050905090810190601f1680156107065780820380516001836020036101000a031916815260200191505b50848103825285518152855160209182019187019080838360005b83811015610739578181015183820152602001610721565b50505050905090810190601f1680156107665780820380516001836020036101000a031916815260200191505b5097505050505050505060405180910390a3600101600055505050565b60009081526003602052604090205490565b6000808210156107dd576040805160e560020a62461bcd02815260206004820152601d602482015260008051602061189d833981519152604482015290519081900360640190fd5b6000548210610824576040805160e560020a62461bcd02815260206004820181905260248201526000805160206118bd833981519152604482015290519081900360640190fd5b503360009081526004602090815260408083208484529091529020546002811415610899576040805160e560020a62461bcd02815260206004820152601560248201527f646f776e766f746520616c726561647920646f6e650000000000000000000000604482015290519081900360640190fd5b80600114156108b957600082815260026020526040902080546000190190555b5033600090815260046020908152604080832093835292815282822060029055600390522080546001019055565b600160a060020a03166000908152600460209081526040808320938352929052205490565b3390565b600160a060020a0316600090815260096020908152604080832094835293815283822092825291909152205490565b6000821015610986576040805160e560020a62461bcd02815260206004820152601d602482015260008051602061189d833981519152604482015290519081900360640190fd5b60005482106109cd576040805160e560020a62461bcd02815260206004820181905260248201526000805160206118bd833981519152604482015290519081900360640190fd5b6000811015610a26576040805160e560020a62461bcd02815260206004820152601760248201527f636f6d6d656e74206964206973206e6f742076616c6964000000000000000000604482015290519081900360640190fd5b600082815260056020526040902054811115610a8c576040805160e560020a62461bcd02815260206004820152601a60248201527f636f6d6d656e74206964206973206e6f6e206578697374656e74000000000000604482015290519081900360640190fd5b336000908152600960209081526040808320858452825280832084845290915290205460011415610b07576040805160e560020a62461bcd02815260206004820152601360248201527f5570766f746520616c726561647920646f6e6500000000000000000000000000604482015290519081900360640190fd5b336000908152600960209081526040808320858452825280832084845290915290205460021415610b54576000828152600860209081526040808320848452909152902080546000190190555b33600090815260096020908152604080832085845282528083208484528252808320600190819055948352600782528083209383529290522080549091019055565b60005490565b600080831015610be4576040805160e560020a62461bcd02815260206004820152601d602482015260008051602061189d833981519152604482015290519081900360640190fd5b6000548310610c2b576040805160e560020a62461bcd02815260206004820181905260248201526000805160206118bd833981519152604482015290519081900360640190fd5b60008211610c83576040805160e560020a62461bcd02815260206004820152601160248201527f6e6f2061747461636865642076616c7565000000000000000000000000000000604482015290519081900360640190fd5b336000908152600a6020526040902054821115610c9f57600080fd5b50336000818152600a60208181526040808420805487900390558684526001825280842054600160a060020a0316808552928252808420805487019055868452600b825292839020805486019055825142815290810186905282519193859390927fd7570171f3eec5b5e70a829a2f7b1a40853d0159967de2efe2bf99208b9a560d9281900390910190a3505050565b600080831015610d89576040805160e560020a62461bcd02815260206004820152601f60248201527f636f6d6d656e74206973206e6f7420666f7220612076616c696420706f737400604482015290519081900360640190fd5b6000548310610e08576040805160e560020a62461bcd02815260206004820152602260248201527f636f6d6d656e7420697320666f722061206e6f6e206578697374656e7420706f60448201527f7374000000000000000000000000000000000000000000000000000000000000606482015290519081900360840190fd5b8351600010610e61576040805160e560020a62461bcd02815260206004820152601860248201527f636f6d6d656e7420636f6d6d656e7420697320656d7074790000000000000000604482015290519081900360640190fd5b600560008481526020019081526020016000205490508233600160a060020a03167f5c7252053e11b0d1b89164a47c163c5f5027f50b79dc32cc22920d6bc21e189a868542866040518080602001858152602001848152602001838152602001828103825286818151815260200191508051906020019080838360005b83811015610ef6578181015183820152602001610ede565b50505050905090810190601f168015610f235780820380516001836020036101000a031916815260200191505b509550505050505060405180910390a360008381526006602090815260408083208484528252808320805473ffffffffffffffffffffffffffffffffffffffff19163390811790915586845260078352818420858552835281842060019081905590845260098352818420878552835281842085855283528184208190559583526005909152902092019091555050565b6000821015610ffb576040805160e560020a62461bcd02815260206004820152601d602482015260008051602061189d833981519152604482015290519081900360640190fd5b6000548210611042576040805160e560020a62461bcd02815260206004820181905260248201526000805160206118bd833981519152604482015290519081900360640190fd5b600081101561109b576040805160e560020a62461bcd02815260206004820152601760248201527f636f6d6d656e74206964206973206e6f742076616c6964000000000000000000604482015290519081900360640190fd5b600082815260056020526040902054811115611101576040805160e560020a62461bcd02815260206004820152601a60248201527f636f6d6d656e74206964206973206e6f6e206578697374656e74000000000000604482015290519081900360640190fd5b33600090815260096020908152604080832085845282528083208484529091529020546002141561117c576040805160e560020a62461bcd02815260206004820152601360248201527f5570766f746520616c726561647920646f6e6500000000000000000000000000604482015290519081900360640190fd5b3360009081526009602090815260408083208584528252808320848452909152902054600114156111c9576000828152600760209081526040808320848452909152902080546000190190555b336000908152600960209081526040808320858452825280832084845282528083206002905593825260088152838220928252919091522080546001019055565b600091825260076020908152604080842092845291905290205490565b60009081526002602052604090205490565b6000600183151514156113255750336000908152600a60205260408120549081116112ae576040805160e560020a62461bcd02815260206004820152601a60248201527f53656e64657220646f6573206e6f7420686176652066756e6473000000000000604482015290519081900360640190fd5b336000818152600a60205260408082208290555183156108fc0291849190818181858888f193505050501580156112e9573d6000803e3d6000fd5b5060408051828152905133917f7fcf532c15f0a6db0bd6d0e038bea71d30d808c7d98cb3bf7268a95bf5081b65919081900360200190a261145b565b6000821161137d576040805160e560020a62461bcd02815260206004820152601860248201527f496e636f72726563742077697468647261772076616c75650000000000000000604482015290519081900360640190fd5b336000908152600a60205260409020548211156113e4576040805160e560020a62461bcd02815260206004820152601f60248201527f617474656d7074696e6720746f20776974686472617720746f6f206d75636800604482015290519081900360640190fd5b336000818152600a6020526040808220805486900390555184156108fc0291859190818181858888f19350505050158015611423573d6000803e3d6000fd5b5060408051838152905133917f7fcf532c15f0a6db0bd6d0e038bea71d30d808c7d98cb3bf7268a95bf5081b65919081900360200190a25b505050565b600091825260086020908152604080842092845291905290205490565b6000908152600b602052604090205490565b600090815260016020526040902054600160a060020a031690565b600160a060020a03166000908152600d602052604090205490565b6000341161151d576040805160e560020a62461bcd02815260206004820152601160248201527f6e6f2061747461636865642076616c7565000000000000000000000000000000604482015290519081900360640190fd5b336000818152600a6020908152604091829020805434908101909155825190815291517f2da466a7b24304f47e87fa2e1e5a81b9831ce54fec19055ce277ca2f39ba42c49281900390910190a2565b6000818152600c602052604081205460ff16156115f9576040805160e560020a62461bcd02815260206004820152602a60248201527f757365726e616d65206973207265676973746572656420746f20616e206f776e60448201527f657220616c726561647900000000000000000000000000000000000000000000606482015290519081900360840190fd5b50336000908152600d602052604090205481811415611688576040805160e560020a62461bcd02815260206004820152602a60248201527f5468697320757365726e616d6520697320616c72656164792073657420746f2060448201527f7468652073656e64657200000000000000000000000000000000000000000000606482015290519081900360840190fd5b8015156116be57336000908152600d60209081526040808320859055848352600c9091529020805460ff191660011790556116f9565b336000908152600d60209081526040808320859055848352600c909152808220805460ff199081166001179091558383529120805490911690555b604051829033907f98669deded710d3d7f0c348e87e0a023ce76d0784aa090cb348048e3f9c88a3490600090a35050565b600080821015611772576040805160e560020a62461bcd02815260206004820152601d602482015260008051602061189d833981519152604482015290519081900360640190fd5b60005482106117b9576040805160e560020a62461bcd02815260206004820181905260248201526000805160206118bd833981519152604482015290519081900360640190fd5b50336000908152600460209081526040808320848452909152902054600181141561182e576040805160e560020a62461bcd02815260206004820152601360248201527f5570766f746520616c726561647920646f6e6500000000000000000000000000604482015290519081900360640190fd5b806002141561184e57600082815260036020526040902080546000190190555b50336000908152600460209081526040808320938352928152828220600190819055600290915291902080549091019055565b600160a060020a03166000908152600a6020526040902054905600766f746573206973206e6f7420666f7220612076616c696420706f7374000000766f74657320697320666f722061206e6f6e206578697374656e7420706f7374a165627a7a7230582025255432cb0e986876bb284a9644ac1d99e52b3ba65d22027003219b75ac95e30029",
  "source": "pragma solidity >=0.4.23;\r\n\r\ncontract NoFilter {\r\n    \r\n    //post related variables\r\n    uint postNumber; // keeps track of posts so that every one is unique\r\n    mapping (uint => address) postOwners; //Keeps track of who owns a specific post\r\n    mapping (uint => uint) upvotes; // keeps track of a posts vote counter\r\n    mapping (uint => uint) downvotes; // keeps track of a posts vote counter\r\n    mapping (address => mapping(uint => uint)) voters; //keeps track of a users voting history, helps to prevent vote spamming from a single account\r\n    \r\n    //comment related variables\r\n    mapping (uint => uint) commentCounter; // keeps track of posts so that every one is unique\r\n    mapping (uint => mapping(uint => address)) commentOwner; //Keeps track of who owns a specific post\r\n    mapping (uint => mapping(uint => uint)) commentUpVotes; // keeps track of a posts vote counter\r\n    mapping (uint => mapping(uint => uint)) commentDownVotes; // keeps track of a posts vote counter\r\n    mapping (address => mapping(uint => mapping(uint => uint))) commentVoters; //keeps track of a users voting history, helps to prevent vote spamming from a single account\r\n    \r\n    //Donation System\r\n    mapping (address => uint) balances;\r\n    mapping (uint => uint) postEarnings;\r\n    //mapping (uint => mapping(uint => uint)) commentEarnings;\r\n    \r\n    //username System\r\n    mapping (bytes32 => bool) usernamesTaken;\r\n    mapping (address => bytes32) usernames;\r\n    \r\n    constructor () public {\r\n        postNumber = 0;\r\n    }\r\n    \r\n    //Invoked when the post has been created, so that the dApp can access the content\r\n    event PostContent (\r\n        address indexed author,\r\n        uint indexed id,\r\n        bytes tags,\r\n        uint postTimestamp, //used to generate private post unique key\r\n        bytes title,\r\n        bytes text\r\n    );\r\n    \r\n    //create a new post, done by storing data in the logs. data can be in any form as long as it is byte data. This means data can be compressed\r\n    function CreatePost(bytes title, bytes text, bytes tags) public {\r\n        \r\n        //check that the data is correct\r\n        require(title.length > 0, \"Invalid title\");\r\n        require(text.length > 0, \"Invalid text\");\r\n        require(tags.length > 0, \"Invalid tags\");\r\n        \r\n        uint postId = postNumber;\r\n        //init the mapping and set the owner as the sender\r\n        postOwners[postId] = msg.sender;\r\n        \r\n        //init votes so that the owner has upvoted by default.\r\n        upvotes[postId] = 1;\r\n        voters[msg.sender][postId] = 1;\r\n        \r\n        //posts are stored in logs, it allows to reduce post invocation cost\r\n        emit PostContent(msg.sender, postId, tags, now, title, text);\r\n        \r\n        postNumber = postId + 1;\r\n    }\r\n    \r\n    //get the owner of a post\r\n    function getOwner(uint postId) public view returns (address) {\r\n        return postOwners[postId];\r\n    }\r\n    \r\n    //upvote a post \r\n    function UpvotePost(uint postId) public {\r\n        require(postId >= 0, \"votes is not for a valid post\");\r\n        require(postId < postNumber, \"votes is for a non existent post\");\r\n        \r\n        uint knownType = voters[msg.sender][postId];\r\n        require(knownType != 1, \"Upvote already done\");\r\n        if (knownType == 2) {\r\n            downvotes[postId] -= 1;\r\n        }\r\n        voters[msg.sender][postId] = 1;\r\n        upvotes[postId] += 1;\r\n    }\r\n    \r\n    //downvote a post \r\n    function DownvotePost(uint postId) public {\r\n        require(postId >= 0, \"votes is not for a valid post\");\r\n        require(postId < postNumber, \"votes is for a non existent post\");\r\n\r\n        uint knownType = voters[msg.sender][postId];\r\n        require(knownType != 2, \"downvote already done\");\r\n        if (knownType == 1) {\r\n            upvotes[postId] -= 1;\r\n        }\r\n        voters[msg.sender][postId] = 2;\r\n        downvotes[postId] += 1;\r\n    }\r\n    \r\n    //get the vote data\r\n    function getUpVotes(uint postId) public view returns (uint) {\r\n        return upvotes[postId];\r\n    }\r\n\r\n    //get the vote data\r\n    function getDownVotes(uint postId) public view returns (uint) {\r\n        return downvotes[postId];\r\n    }\r\n    \r\n    //get the voter data\r\n    function getVoterData(uint postId, address voter) public view returns (uint) {\r\n        return voters[voter][postId];\r\n    }\r\n\r\n    /////////// Comment functionality\r\n\r\n    //stores a log comment on the blockchain when commented\r\n    event CommentCreated (\r\n        address indexed commenter,\r\n        uint indexed postId,\r\n        bytes comment,\r\n        uint parentComment,\r\n\t\tuint commentTimestamp,\r\n\t\tuint commentId\r\n    );\r\n    \r\n    function PostComment(bytes text, uint postId, uint parentComment) public {\r\n        require(postId >= 0, \"comment is not for a valid post\");\r\n        require(postId < postNumber, \"comment is for a non existent post\");\r\n        require(text.length > 0, \"comment comment is empty\");\r\n\t\t\r\n\t\t//update comment related variables\r\n        uint commentId = commentCounter[postId];\r\n\t\t\r\n\t\t//emit to the blockchain\r\n        emit CommentCreated(msg.sender, postId, text, parentComment, now, commentId);\r\n        \r\n\r\n        commentOwner[postId][commentId] = msg.sender;\r\n        \r\n        //deal with upvote data\r\n        commentUpVotes[postId][commentId] = 1;\r\n        commentVoters[msg.sender][postId][commentId] = 1;\r\n        \r\n        //increment counter when done\r\n        commentCounter[postId] = commentId + 1;\r\n    }\r\n    \r\n    //upvote a post \r\n    function UpvoteComment(uint postId, uint commendId) public {\r\n        require(postId >= 0, \"votes is not for a valid post\");\r\n        require(postId < postNumber, \"votes is for a non existent post\");\r\n        \r\n        require(commendId >= 0, \"comment id is not valid\");\r\n        require(commendId <= commentCounter[postId], \"comment id is non existent\");\r\n        require(commentVoters[msg.sender][postId][commendId] != 1, \"Upvote already done\");\r\n\r\n        if (commentVoters[msg.sender][postId][commendId] == 2) {\r\n            commentDownVotes[postId][commendId] -= 1;\r\n        }\r\n\r\n        commentVoters[msg.sender][postId][commendId] = 1;\r\n        commentUpVotes[postId][commendId] += 1;\r\n    }\r\n    \r\n    //downvote a post \r\n    function DownvoteComment(uint postId, uint commendId) public {\r\n        require(postId >= 0, \"votes is not for a valid post\");\r\n        require(postId < postNumber, \"votes is for a non existent post\");\r\n        \r\n        require(commendId >= 0, \"comment id is not valid\");\r\n        require(commendId <= commentCounter[postId], \"comment id is non existent\");\r\n        require(commentVoters[msg.sender][postId][commendId] != 2, \"Upvote already done\");\r\n        \r\n        if (commentVoters[msg.sender][postId][commendId] == 1) {\r\n            commentUpVotes[postId][commendId] -= 1;\r\n        }\r\n\r\n        commentVoters[msg.sender][postId][commendId] = 2;\r\n        commentDownVotes[postId][commendId] += 1;\r\n    }\r\n    \r\n    //get the comment vote data\r\n    function getCommentUpVotes(uint postId, uint commendId) public view returns (uint) {\r\n        return commentUpVotes[postId][commendId];\r\n    }\r\n\r\n    //get the comment vote data\r\n    function getCommentDownVotes(uint postId, uint commendId) public view returns (uint) {\r\n        return commentDownVotes[postId][commendId];\r\n    }\r\n    \r\n    //get the comment voter data\r\n    function getCommentVoterData(uint postId, uint commendId, address commenter) public view returns (uint) {\r\n        return commentVoters[commenter][postId][commendId];\r\n    } \r\n\r\n    //get the total number of posts\r\n    function getPostCounter() public view returns (uint) {\r\n        return postNumber;\r\n    }\r\n    \r\n    //deposit and Withdrawal System\r\n    \r\n    //Invoked when a donation is made\r\n    event Deposited (\r\n        address indexed depositer,\r\n        uint value\r\n    );\r\n    \r\n    //deposit trx into the smart contract\r\n    function deposit() public payable {\r\n        require(msg.value > 0, \"no attached value\");\r\n        balances[msg.sender] += msg.value;\r\n        emit Deposited(msg.sender, msg.value);\r\n    }\r\n    \r\n    //Invoked when a Withdrawal is made\r\n    event Withdrawal (\r\n        address indexed taker,\r\n        uint value\r\n    );\r\n    \r\n    \r\n    //Withdraw funds\r\n    function withdraw(bool withdrawall, uint trxAmmount) public {\r\n        \r\n        //either withdraw all the funds for a user \r\n        if(withdrawall == true){\r\n            uint balance = balances[msg.sender];\r\n            require(balance > 0, \"Sender does not have funds\");\r\n            balances[msg.sender] = 0;\r\n            msg.sender.transfer(balance);\r\n            emit Withdrawal(msg.sender, balance);\r\n        }\r\n        else{ //or take out a specific amount of tron\r\n            require(trxAmmount > 0, \"Incorrect withdraw value\");\r\n            require(balances[msg.sender] >= trxAmmount, \"attempting to withdraw too much\");\r\n            balances[msg.sender] -= trxAmmount;\r\n            msg.sender.transfer(trxAmmount);\r\n            emit Withdrawal(msg.sender, trxAmmount);\r\n        }\r\n    }\r\n    \r\n    //Donation System \r\n    \r\n    //make a donation to a post\r\n    function makeDonation(uint postId, uint donationValue) public {\r\n        \r\n        require(postId >= 0, \"votes is not for a valid post\");\r\n        require(postId < postNumber, \"votes is for a non existent post\");\r\n        \r\n        require(donationValue > 0, \"no attached value\");\r\n        require(donationValue <= balances[msg.sender]);\r\n        \r\n        \r\n        balances[msg.sender] -= donationValue;\r\n        \r\n        //post owner\r\n        address owner = postOwners[postId];\r\n        balances[owner] += donationValue;\r\n        postEarnings[postId] += donationValue;\r\n        emit DonationMade(msg.sender, donationValue, now, postId);\r\n    }\r\n    \r\n    //Invoked when a donation is made\r\n    event DonationMade (\r\n        address indexed donator,\r\n        uint indexed donationValue,\r\n        uint donationTimestamp,\r\n        uint postid\r\n    );\r\n    \r\n    //get post donations\r\n    function getPostDonations(uint postId) public view returns (uint) {\r\n        return postEarnings[postId];\r\n    }\r\n    \r\n    //get user balance\r\n    function getBalance(address user) public view returns (uint) {\r\n        return balances[user];\r\n    }\r\n    \r\n    // Username System\r\n    //Invoked when the post has been created, so that the dApp can access the content\r\n    event UsernameCreated (\r\n        address indexed user,\r\n        bytes32 indexed username\r\n    );\r\n    \r\n    //create a new post, done by storing data in the logs. data can be in any form as long as it is byte data. This means data can be compressed\r\n    function SetUsername(bytes32 username) public {\r\n        \r\n        require (usernamesTaken[username] == false, \"username is registered to an owner already\");\r\n        \r\n        bytes32 currentUsername = usernames[msg.sender];\r\n        require(currentUsername != username, \"This username is already set to the sender\");\r\n        \r\n        //if the user does not have a username then set it\r\n        if(currentUsername == 0x0){\r\n            usernames[msg.sender] = username;\r\n            usernamesTaken[username] = true;\r\n        }else{\r\n        //else update the currently known username and make the old username available to other users\r\n            usernames[msg.sender] = username;\r\n            usernamesTaken[username] = true;\r\n            usernamesTaken[currentUsername] = false;\r\n        }\r\n        //posts are stored in logs, it allows to reduce post invocation cost\r\n        emit UsernameCreated(msg.sender, username);\r\n        \r\n    }\r\n    \r\n    //get the stored username for a given address\r\n    function getUsername(address user) public view returns (bytes32) {\r\n        return usernames[user];\r\n    }\r\n\r\n    //UTIL FUNCTIONS\r\n\r\n    //get the user\r\n    function getSenderAddress() public view returns (address) {\r\n        return msg.sender;\r\n    }\r\n}\r\n",
  "sourcePath": "C:\\Users\\Khera\\Documents\\GitHub\\TronDappSteedium\\Solidity\\contracts\\NoFilter.sol",
  "compiler": {
    "name": "solc",
    "version": "0.4.24-develop.2018.8.28+commit.3ba0cdec.mod.Emscripten.clang"
  },
  "schemaVersion": "2.0.1",
  "updatedAt": "2018-12-31T15:56:03.661Z"
}