{
  "contractName": "TAiL",
  "abi": [
    {
      "inputs": [],
      "payable": false,
      "stateMutability": "nonpayable",
      "type": "constructor"
    },
    {
      "anonymous": false,
      "inputs": [
        {
          "indexed": false,
          "name": "Network",
          "type": "address"
        },
        {
          "indexed": false,
          "name": "NetworkNumber",
          "type": "uint256"
        },
        {
          "indexed": false,
          "name": "owner",
          "type": "address"
        }
      ],
      "name": "NetworkCreated",
      "type": "event"
    },
    {
      "anonymous": false,
      "inputs": [
        {
          "indexed": false,
          "name": "network",
          "type": "uint256"
        },
        {
          "indexed": false,
          "name": "RawValues",
          "type": "uint256[]"
        }
      ],
      "name": "Prediction",
      "type": "event"
    },
    {
      "constant": false,
      "inputs": [
        {
          "name": "_LayerSizes",
          "type": "uint256[]"
        },
        {
          "name": "_Biases",
          "type": "uint256[]"
        },
        {
          "name": "_Weights",
          "type": "uint256[]"
        }
      ],
      "name": "SetupNetwork",
      "outputs": [],
      "payable": false,
      "stateMutability": "nonpayable",
      "type": "function"
    },
    {
      "constant": false,
      "inputs": [
        {
          "name": "NetworkNumber",
          "type": "uint256"
        },
        {
          "name": "data",
          "type": "uint256[]"
        }
      ],
      "name": "Predict",
      "outputs": [],
      "payable": false,
      "stateMutability": "nonpayable",
      "type": "function"
    }
  ],
  "bytecode": "0x60806040526000805534801561001457600080fd5b5060008055610ef3806100286000396000f30060806040526004361061004b5763ffffffff7c010000000000000000000000000000000000000000000000000000000060003504166311f3c8428114610050578063ddcbeb82146100ac575b600080fd5b34801561005c57600080fd5b506040805160206004602480358281013584810280870186019097528086526100aa968435963696604495919490910192918291850190849080828437509497506101739650505050505050565b005b3480156100b857600080fd5b50604080516020600480358082013583810280860185019096528085526100aa95369593946024949385019291829185019084908082843750506040805187358901803560208181028481018201909552818452989b9a998901989297509082019550935083925085019084908082843750506040805187358901803560208181028481018201909552818452989b9a9989019892975090820195509350839250850190849080828437509497506103429650505050505050565b60008281526001602090815260408083205490517feef07c1b0000000000000000000000000000000000000000000000000000000081526004810183815285516024830152855160609573ffffffffffffffffffffffffffffffffffffffff9094169463eef07c1b9488948493604490910192868101929102908190849084905b8381101561020c5781810151838201526020016101f4565b5050505090500192505050600060405180830381600087803b15801561023157600080fd5b505af1158015610245573d6000803e3d6000fd5b505050506040513d6000823e601f3d908101601f19168201604052602081101561026e57600080fd5b81019080805164010000000081111561028657600080fd5b8201602081018481111561029957600080fd5b81518560208202830111640100000000821117156102b657600080fd5b505092919050505090507f0e4a76a2c28957239c8603defe8119d1918c23f9a220efda9cf6b26ccc7ef11083826040518083815260200180602001828103825283818151815260200191508051906020019060200280838360005b83811015610329578181015183820152602001610311565b50505050905001935050505060405180910390a1505050565b60008061034d610572565b604051809103906000f080158015610369573d6000803e3d6000fd5b5091508173ffffffffffffffffffffffffffffffffffffffff1663ddcbeb828686866040518463ffffffff167c010000000000000000000000000000000000000000000000000000000002815260040180806020018060200180602001848103845287818151815260200191508051906020019060200280838360005b838110156103fe5781810151838201526020016103e6565b50505050905001848103835286818151815260200191508051906020019060200280838360005b8381101561043d578181015183820152602001610425565b50505050905001848103825285818151815260200191508051906020019060200280838360005b8381101561047c578181015183820152602001610464565b505050509050019650505050505050600060405180830381600087803b1580156104a557600080fd5b505af11580156104b9573d6000803e3d6000fd5b5050600080548152600160209081526040808320805473ffffffffffffffffffffffffffffffffffffffff891673ffffffffffffffffffffffffffffffffffffffff199182168117909255845485526002845282852080549091163390811790915593548251918252928101929092528181019290925290518594507f29134136a755e8175cd6ad425c540691a5efe853c01e05aac00f1ebc4ca9d90d9350908190036060019150a15050600080546001019055505050565b60405161094580610583833901905600608060405234801561001057600080fd5b5060008054600160a060020a03191633179055610913806100326000396000f3006080604052600436106100565763ffffffff7c0100000000000000000000000000000000000000000000000000000000600035041663ddcbeb82811461005b578063eef07c1b14610124578063f6adb3bf146101c9575b600080fd5b34801561006757600080fd5b506040805160206004803580820135838102808601850190965280855261012295369593946024949385019291829185019084908082843750506040805187358901803560208181028481018201909552818452989b9a998901989297509082019550935083925085019084908082843750506040805187358901803560208181028481018201909552818452989b9a9989019892975090820195509350839250850190849080828437509497506101f39650505050505050565b005b34801561013057600080fd5b5060408051602060048035808201358381028086018501909652808552610179953695939460249493850192918291850190849080828437509497506105519650505050505050565b60408051602080825283518183015283519192839290830191858101910280838360005b838110156101b557818101518382015260200161019d565b505050509050019250505060405180910390f35b3480156101d557600080fd5b506101e1600435610862565b60408051918252519081900360200190f35b60008054819081908190819074010000000000000000000000000000000000000000900460ff161561028657604080517f08c379a000000000000000000000000000000000000000000000000000000000815260206004820152601f60248201527f4e6574776f726b2068617320616c7265616479206265656e2073657420757000604482015290519081900360640190fd5b8551600316156102f757604080517f08c379a000000000000000000000000000000000000000000000000000000000815260206004820152601360248201527f496e76616c696420776569676874206461746100000000000000000000000000604482015290519081900360640190fd5b87516003558651600455600094508492505b87518510156103fa5784151561033957878581518110151561032757fe5b60209081029091010151600255610361565b600188510385141561036157878581518110151561035357fe5b602090810290910101516001555b878581518110151561036f57fe5b602090810290910181015160008781526005909252604082205593505b878581518110151561039a57fe5b906020019060200201518410156103ef5786838151811015156103b957fe5b6020908102909101810151600085815260078352604080822092909255600690925290208590556001938401939092019161038c565b600190940193610309565b600094505b85518510156104b557858581518110151561041657fe5b906020019060200201519150858560010181518110151561043357fe5b906020019060200201519050858560020181518110151561045057fe5b602090810290910181015160008481526008835260408082208583529093529190912055855186906003870190811061048557fe5b602090810290910181015160008481526009835260408082208583529093529190912055600494909401936103ff565b60025460015460005460408051938452602084019290925273ffffffffffffffffffffffffffffffffffffffff1682820152517f64b3ebf475bfbd220cb4a3a3d4ad1477199222ebcd60d27f2ab9b4de88e17e8d9181900360600190a150506000805474ff0000000000000000000000000000000000000000191674010000000000000000000000000000000000000000179055505050505050565b606080600080600080600080600080600080600060606002548f511415156105da57604080517f08c379a000000000000000000000000000000000000000000000000000000000815260206004820152601e60248201527f44617461206973206e6f742074686520636f7272656374206c656e6774680000604482015290519081900360640190fd5b600454604051908082528060200260200182016040528015610606578160200160208202803883390190505b509c5060009b505b8e518c1015610652578e8c81518110151561062557fe5b906020019060200201518d8d81518110151561063d57fe5b602090810290910101526001909b019a61060e565b8e519a506000995060019b505b6003548c1015610740576000198c01600090815260056020526040808220548e835290822054909a50985096505b878710156107315760009550600094505b888510156107085789850160008181526008602090815260408083208f84529091529020548e519195506106ee918f90879081106106d857fe5b602090810290910101519063ffffffff61087c16565b92506106f983610862565b9095019460019094019361069e565b858d8c81518110151561071757fe5b6020908102909101015260019a8b019a969096019561068d565b6001909b019a9888019861065f565b60056000600160035403815260200190815260200160002054915081604051908082528060200260200182016040528015610785578160200160208202803883390190505b50905060009b505b818c10156107db578c518d908d8103600019019081106107a957fe5b906020019060200201518160018e8503038151811015156107c657fe5b602090810290910101526001909b019a61078d565b7f2455102ffed0f83f1c56ad97cc0fdeae2b106985e587b77b0816ca1a292fc036816040518080602001828103825283818151815260200191508051906020019060200280838360005b8381101561083d578181015183820152602001610825565b505050509050019250505060405180910390a19e9d5050505050505050505050505050565b60008082101561087457506000610877565b50805b919050565b6000620f424061089861088f85856108a9565b6207a1206108d7565b8115156108a157fe5b049392505050565b60008115806108c65750508082028282828115156108c357fe5b04145b15156108d157600080fd5b92915050565b808201828110156108d157600080fd00a165627a7a7230582032592d5088701cdc2215a3eaa22ec1c1dd184b7361f5dc24ffdafcbb861e41660029a165627a7a723058201af17846a5e64f45a9c45ed79bfc37862331a8a450661ee5b1c55f041f49047a0029",
  "source": "pragma solidity >=0.4.23;\r\n\r\nimport \"./Math.sol\";\r\nimport \"./TAiLNN.sol\";\r\n\r\ncontract TAiL {\r\n    \r\n    uint networkNumber = 0;\r\n\r\n    //Neural Network Values\r\n    mapping(uint => address) Networks;\r\n    mapping(uint => address) NetworkOwners;\r\n    \r\n    constructor () public {\r\n        networkNumber = 0;\r\n    }\r\n    \r\n    \r\n    \r\n    //set up the neural network\r\n    function SetupNetwork(uint[] _LayerSizes, uint[] _Biases, uint[] _Weights) public {\r\n        \r\n        TAiLNN a = new TAiLNN();\r\n        a.SetupNetwork(_LayerSizes, _Biases, _Weights);\r\n        \r\n        address NewNetwork = address(a);\r\n        Networks[networkNumber] = NewNetwork;\r\n        NetworkOwners[networkNumber] = msg.sender;\r\n        \r\n        emit NetworkCreated(NewNetwork, networkNumber, msg.sender);\r\n        networkNumber += 1;\r\n\r\n    }\r\n    \r\n    //event that shows that a neural network has been initialised.\r\n    event NetworkCreated (address Network, uint NetworkNumber, address owner);\r\n        \r\n    //make a prediction on user given data \r\n    function Predict(uint NetworkNumber, uint[] data) public{\r\n        \r\n        uint[] memory prediction = TAiLNN(Networks[NetworkNumber]).Predict(data);\r\n        emit Prediction(NetworkNumber, prediction);\r\n        \r\n        \r\n    }\r\n    \r\n    //the prediction event tells the user what the network predicts, as well as raw values\r\n    event Prediction (uint network, uint[] RawValues);\r\n\r\n    \r\n}\r\n\r\n",
  "sourcePath": "C:\\Users\\Khera\\Documents\\GitHub\\TronAi\\Solidity\\contracts\\TAiL.sol",
  "compiler": {
    "name": "solc",
    "version": "0.4.24-develop.2018.8.28+commit.3ba0cdec.mod.Emscripten.clang"
  },
  "schemaVersion": "2.0.1",
  "updatedAt": "2019-01-05T08:48:55.503Z"
}