{
  "contractName": "TAiLNN",
  "abi": [
    {
      "inputs": [],
      "payable": false,
      "stateMutability": "nonpayable",
      "type": "constructor"
    },
    {
      "anonymous": false,
      "inputs": [
        {
          "indexed": false,
          "name": "ins",
          "type": "uint256"
        },
        {
          "indexed": false,
          "name": "out",
          "type": "uint256"
        },
        {
          "indexed": false,
          "name": "owner",
          "type": "address"
        }
      ],
      "name": "NetworkCreated",
      "type": "event"
    },
    {
      "anonymous": false,
      "inputs": [
        {
          "indexed": false,
          "name": "RawValues",
          "type": "uint256[]"
        }
      ],
      "name": "PredictionMade",
      "type": "event"
    },
    {
      "constant": false,
      "inputs": [
        {
          "name": "_LayerSizes",
          "type": "uint256[]"
        },
        {
          "name": "_Biases",
          "type": "uint256[]"
        },
        {
          "name": "_Weights",
          "type": "uint256[]"
        }
      ],
      "name": "SetupNetwork",
      "outputs": [],
      "payable": false,
      "stateMutability": "nonpayable",
      "type": "function"
    },
    {
      "constant": false,
      "inputs": [
        {
          "name": "data",
          "type": "uint256[]"
        }
      ],
      "name": "Predict",
      "outputs": [
        {
          "name": "",
          "type": "uint256[]"
        }
      ],
      "payable": false,
      "stateMutability": "nonpayable",
      "type": "function"
    },
    {
      "constant": false,
      "inputs": [
        {
          "name": "x",
          "type": "uint256"
        }
      ],
      "name": "IntegerRelu",
      "outputs": [
        {
          "name": "",
          "type": "uint256"
        }
      ],
      "payable": false,
      "stateMutability": "nonpayable",
      "type": "function"
    }
  ],
  "bytecode": "0x608060405234801561001057600080fd5b5060008054600160a060020a03191633179055610913806100326000396000f3006080604052600436106100565763ffffffff7c0100000000000000000000000000000000000000000000000000000000600035041663ddcbeb82811461005b578063eef07c1b14610124578063f6adb3bf146101c9575b600080fd5b34801561006757600080fd5b506040805160206004803580820135838102808601850190965280855261012295369593946024949385019291829185019084908082843750506040805187358901803560208181028481018201909552818452989b9a998901989297509082019550935083925085019084908082843750506040805187358901803560208181028481018201909552818452989b9a9989019892975090820195509350839250850190849080828437509497506101f39650505050505050565b005b34801561013057600080fd5b5060408051602060048035808201358381028086018501909652808552610179953695939460249493850192918291850190849080828437509497506105519650505050505050565b60408051602080825283518183015283519192839290830191858101910280838360005b838110156101b557818101518382015260200161019d565b505050509050019250505060405180910390f35b3480156101d557600080fd5b506101e1600435610862565b60408051918252519081900360200190f35b60008054819081908190819074010000000000000000000000000000000000000000900460ff161561028657604080517f08c379a000000000000000000000000000000000000000000000000000000000815260206004820152601f60248201527f4e6574776f726b2068617320616c7265616479206265656e2073657420757000604482015290519081900360640190fd5b8551600316156102f757604080517f08c379a000000000000000000000000000000000000000000000000000000000815260206004820152601360248201527f496e76616c696420776569676874206461746100000000000000000000000000604482015290519081900360640190fd5b87516003558651600455600094508492505b87518510156103fa5784151561033957878581518110151561032757fe5b60209081029091010151600255610361565b600188510385141561036157878581518110151561035357fe5b602090810290910101516001555b878581518110151561036f57fe5b602090810290910181015160008781526005909252604082205593505b878581518110151561039a57fe5b906020019060200201518410156103ef5786838151811015156103b957fe5b6020908102909101810151600085815260078352604080822092909255600690925290208590556001938401939092019161038c565b600190940193610309565b600094505b85518510156104b557858581518110151561041657fe5b906020019060200201519150858560010181518110151561043357fe5b906020019060200201519050858560020181518110151561045057fe5b602090810290910181015160008481526008835260408082208583529093529190912055855186906003870190811061048557fe5b602090810290910181015160008481526009835260408082208583529093529190912055600494909401936103ff565b60025460015460005460408051938452602084019290925273ffffffffffffffffffffffffffffffffffffffff1682820152517f64b3ebf475bfbd220cb4a3a3d4ad1477199222ebcd60d27f2ab9b4de88e17e8d9181900360600190a150506000805474ff0000000000000000000000000000000000000000191674010000000000000000000000000000000000000000179055505050505050565b606080600080600080600080600080600080600060606002548f511415156105da57604080517f08c379a000000000000000000000000000000000000000000000000000000000815260206004820152601e60248201527f44617461206973206e6f742074686520636f7272656374206c656e6774680000604482015290519081900360640190fd5b600454604051908082528060200260200182016040528015610606578160200160208202803883390190505b509c5060009b505b8e518c1015610652578e8c81518110151561062557fe5b906020019060200201518d8d81518110151561063d57fe5b602090810290910101526001909b019a61060e565b8e519a506000995060019b505b6003548c1015610740576000198c01600090815260056020526040808220548e835290822054909a50985096505b878710156107315760009550600094505b888510156107085789850160008181526008602090815260408083208f84529091529020548e519195506106ee918f90879081106106d857fe5b602090810290910101519063ffffffff61087c16565b92506106f983610862565b9095019460019094019361069e565b858d8c81518110151561071757fe5b6020908102909101015260019a8b019a969096019561068d565b6001909b019a9888019861065f565b60056000600160035403815260200190815260200160002054915081604051908082528060200260200182016040528015610785578160200160208202803883390190505b50905060009b505b818c10156107db578c518d908d8103600019019081106107a957fe5b906020019060200201518160018e8503038151811015156107c657fe5b602090810290910101526001909b019a61078d565b7f99c9216cbcb7713d342d8ec2a15e7c706fc8fc56a997f63a5c74665b7664c82e816040518080602001828103825283818151815260200191508051906020019060200280838360005b8381101561083d578181015183820152602001610825565b505050509050019250505060405180910390a19e9d5050505050505050505050505050565b60008082101561087457506000610877565b50805b919050565b6000620f424061089861088f85856108a9565b6207a1206108d7565b8115156108a157fe5b049392505050565b60008115806108c65750508082028282828115156108c357fe5b04145b15156108d157600080fd5b92915050565b808201828110156108d157600080fd00a165627a7a72305820c4fca90989d4f2e87fe4fb9de0c52a9e3be97993e3914d8d6193b4172b7842e50029",
  "source": "pragma solidity >=0.4.23;\r\n\r\nimport \"./Math.sol\";\r\n\r\ncontract TAiLNN {\r\n    \r\n    using Math for uint;\r\n    \r\n    //Network Owner\r\n    address NetworkOwner;\r\n    bool NetworkSet;\r\n    \r\n    //Network Configuration\r\n    uint NumberOutputs;\r\n    uint NumberInputs;\r\n    uint NumberLayers;\r\n    uint NumberNeurons;\r\n    \r\n    //Neural Network Values\r\n    mapping(uint => uint) LayerSizes;\r\n    mapping(uint => uint) NeuronLayers;\r\n    mapping(uint => uint) NeuronBiases;\r\n    mapping(uint => mapping(uint => uint)) NeuronConnectionWeights;\r\n    mapping(uint => mapping(uint => uint)) NeuronActivationFunctions;\r\n    \r\n    constructor () public {\r\n        //set the owner of the network to the contract creator\r\n        NetworkOwner = msg.sender;\r\n    }\r\n    \r\n    //set up the neural network\r\n    function SetupNetwork(uint[] _LayerSizes, uint[] _Biases, uint[] _Weights) public {\r\n        \r\n        require(NetworkSet == false, \"Network has already been set up\");\r\n        require(_Weights.length % 4 == 0 , \"Invalid weight data\");\r\n        \r\n        //set the networks configuration\r\n        NumberLayers = _LayerSizes.length;\r\n        NumberNeurons = _Biases.length;\r\n        \r\n        //seting layer sizes\r\n        uint i;\r\n        uint j;\r\n        uint counter = 0;\r\n        \r\n        for(i=0; i<_LayerSizes.length; i++){\r\n            \r\n            //set the input/output sizes\r\n            if(i == 0) {\r\n                NumberInputs = _LayerSizes[i];\r\n            }\r\n            else if(i == _LayerSizes.length -1){\r\n                NumberOutputs = _LayerSizes[i];\r\n            }\r\n            \r\n            LayerSizes[i] = _LayerSizes[i];\r\n            \r\n            //set the biases of the network\r\n            for(j=0; j<_LayerSizes[i]; j++){\r\n                \r\n                NeuronBiases[counter] = _Biases[counter];\r\n                NeuronLayers[counter] = i;\r\n\r\n                counter += 1;\r\n            }\r\n            \r\n        }\r\n        \r\n        //set the weights of the network\r\n        for(i=0; i<_Weights.length; i+=4){\r\n            \r\n            uint neuron1 = _Weights[i];\r\n            uint neuron2 = _Weights[i+1];\r\n            \r\n            //set the networks weights\r\n            NeuronConnectionWeights[neuron1][neuron2] = _Weights[i+2];\r\n            \r\n            //set the networks activation functions\r\n            NeuronActivationFunctions[neuron1][neuron2] = _Weights[i+3];\r\n        }\r\n        \r\n        \r\n        emit NetworkCreated(NumberInputs, NumberOutputs, NetworkOwner);\r\n        \r\n        //set the network to a perment change where it cant be changed.\r\n        NetworkSet = true;\r\n    }\r\n    \r\n    //event that shows that a neural network has been initialised.\r\n    event NetworkCreated (uint ins, uint out, address owner);\r\n        \r\n    //make a prediction on user given data \r\n    function Predict(uint[] data) public returns(uint[]){\r\n        \r\n        require(data.length == NumberInputs, \"Data is not the correct length\");\r\n        \r\n        uint[] memory CalculatedValues = new uint[](NumberNeurons);\r\n        \r\n        //set the values for the first layer\r\n        for(uint i=0; i<data.length; i++){\r\n            CalculatedValues[i] = data[i];\r\n        }\r\n        \r\n        uint NeuronCount = data.length;\r\n        uint layerStart = 0;\r\n        //calculate values for each layer\r\n        for(i = 1; i<NumberLayers; i++){\r\n            \r\n            //get the layer sizes so that connection can be found\r\n            uint prevLayerSize = LayerSizes[i-1];\r\n            uint LayerSize = LayerSizes[i];\r\n            \r\n            //calculate values for a given layers neurons\r\n            for (uint j = 0; j<LayerSize; j ++){\r\n                uint value = 0;\r\n                \r\n                //calculate a value for each node multiplying by the weights.\r\n                for(uint k = 0; k<prevLayerSize; k++){\r\n                    uint ConnectedNeuron = layerStart + k;\r\n                    uint calculatedWeight = CalculatedValues[ConnectedNeuron].wmul(uint(NeuronConnectionWeights[ConnectedNeuron][NeuronCount]));\r\n                    //The nodes value is increased by the the multiplacation of connection values, biases, and previous node values.\r\n                    \r\n                    // apply the activation function (this doesnt really do anything)...\r\n                    value += IntegerRelu(calculatedWeight);\r\n                }\r\n                \r\n                CalculatedValues[NeuronCount] = value;\r\n                \r\n                NeuronCount += 1;\r\n            }\r\n            \r\n            //this counter helps keep track/point to where the current layer is\r\n            layerStart += prevLayerSize;\r\n            \r\n        }\r\n        \r\n        //generating values for an event emit\r\n        uint LastLayerSize = LayerSizes[NumberLayers - 1];\r\n        uint[] memory RawValues = new uint[](LastLayerSize);\r\n        \r\n        for(i =0; i<LastLayerSize; i++){\r\n            \r\n            RawValues[((LastLayerSize-i) - 1)] = CalculatedValues[((CalculatedValues.length-1)-i)];\r\n        }\r\n        \r\n        //emit an event to tell the user what the neural Prediction is for the last layer\r\n        emit PredictionMade(RawValues);\r\n        \r\n        return RawValues;\r\n    }\r\n    \r\n    //the prediction event tells the user what the network predicts, as well as raw values\r\n    event PredictionMade(uint[] RawValues);\r\n    \r\n    //the relu activation wont change anything as the neural networks are not using ints, therefore cannot be negative\r\n    //its here as its better to remember we need some activation function!\r\n    function IntegerRelu(uint x) public returns (uint){\r\n        if(x < 0){\r\n            return 0;\r\n        }else {\r\n            return x;\r\n        }\r\n    }\r\n    \r\n}\r\n\r\n",
  "sourcePath": "C:\\Users\\Khera\\Documents\\GitHub\\TronAi\\Solidity\\contracts\\TAiLNN.sol",
  "compiler": {
    "name": "solc",
    "version": "0.4.24-develop.2018.8.28+commit.3ba0cdec.mod.Emscripten.clang"
  },
  "schemaVersion": "2.0.1",
  "updatedAt": "2019-01-05T11:06:58.161Z"
}