{
  "contractName": "TronAiNeuralNetwork",
  "abi": [
    {
      "inputs": [],
      "payable": false,
      "stateMutability": "nonpayable",
      "type": "constructor"
    },
    {
      "anonymous": false,
      "inputs": [
        {
          "indexed": false,
          "name": "ins",
          "type": "uint256"
        },
        {
          "indexed": false,
          "name": "out",
          "type": "uint256"
        },
        {
          "indexed": false,
          "name": "owner",
          "type": "address"
        }
      ],
      "name": "NetworkCreated",
      "type": "event"
    },
    {
      "constant": false,
      "inputs": [
        {
          "name": "inputs",
          "type": "uint256"
        },
        {
          "name": "outputs",
          "type": "uint256"
        },
        {
          "name": "Layers",
          "type": "uint256"
        },
        {
          "name": "_LayerSizes",
          "type": "uint256[]"
        },
        {
          "name": "Values",
          "type": "uint256[]"
        }
      ],
      "name": "SetWeights",
      "outputs": [],
      "payable": false,
      "stateMutability": "nonpayable",
      "type": "function"
    }
  ],
  "bytecode": "0x608060405234801561001057600080fd5b5060008054600160a060020a03191633179055610329806100326000396000f3006080604052600436106100405763ffffffff7c010000000000000000000000000000000000000000000000000000000060003504166301274a3e8114610045575b600080fd5b34801561005157600080fd5b5060408051606435600481810135602081810285810182019096528185526100e2958335956024803596604435963696909560849592909301929091829185019084908082843750506040805187358901803560208181028481018201909552818452989b9a9989019892975090820195509350839250850190849080828437509497506100e49650505050505050565b005b6000805474010000000000000000000000000000000000000000900460ff161561016f57604080517f08c379a000000000000000000000000000000000000000000000000000000000815260206004820152601f60248201527f4e6574776f726b2068617320616c7265616479206265656e2073657420757000604482015290519081900360640190fd5b60005473ffffffffffffffffffffffffffffffffffffffff16331461021b57604080517f08c379a000000000000000000000000000000000000000000000000000000000815260206004820152602660248201527f4e6f6e2d4f776e657220617474656d7074696e6720746f20736574206e65747760448201527f6f726b2075700000000000000000000000000000000000000000000000000000606482015290519081900360840190fd5b5060028590556001849055600383905560005b825181101561026857828181518110151561024557fe5b60209081029091018101516000838152600590925260409091205560010161022e565b600054604080518881526020810188905273ffffffffffffffffffffffffffffffffffffffff90921682820152517f64b3ebf475bfbd220cb4a3a3d4ad1477199222ebcd60d27f2ab9b4de88e17e8d9181900360600190a150506000805474ff0000000000000000000000000000000000000000191674010000000000000000000000000000000000000000179055505050505600a165627a7a7230582091d4392b032bf86752feef73467ba39c10fafc33869a4bd2f88297532c0c6a560029",
  "source": "pragma solidity >=0.4.23;\r\n\r\ncontract TronAiNeuralNetwork {\r\n    \r\n    //Network Owner\r\n    address NetworkOwner;\r\n    bool NetworkSet;\r\n    \r\n    //Network Configuration\r\n    uint NumberOutputs;\r\n    uint NumberInputs;\r\n    uint NumberLayers;\r\n    \r\n    //Neural Network Values\r\n    mapping(uint => uint) NeuronBiases;\r\n    mapping(uint => uint) LayerSizes;\r\n    mapping(uint => mapping(uint => uint)) NeuronConnectionWeights;\r\n    mapping(uint => mapping(uint => uint)) ConnectionActivationFunctions;\r\n    \r\n    constructor () public {\r\n        //set the owner of the network to the contract creator\r\n        NetworkOwner = msg.sender;\r\n    }\r\n    \r\n    function SetWeights(uint inputs, uint outputs, uint Layers, uint[] _LayerSizes, uint[] Values) public {\r\n        \r\n        require(NetworkSet == false, \"Network has already been set up\");\r\n        require(msg.sender == NetworkOwner, \"Non-Owner attempting to set network up\");\r\n        \r\n        //set the networks configuration\r\n        NumberInputs = inputs;\r\n        NumberOutputs = outputs;\r\n        NumberLayers = Layers;\r\n        \r\n        //seting layer sizes\r\n        uint i;\r\n        for(i=0; i<_LayerSizes.length; i++){\r\n            LayerSizes[i] = _LayerSizes[i];\r\n        }\r\n        \r\n        /*uint j;\r\n        for(i=0; i<_LayerSizes.length; i++){\r\n            \r\n            j += 1;\r\n        }*/\r\n        \r\n        emit NetworkCreated(inputs, outputs, NetworkOwner);\r\n        \r\n        //set the network to a perment change where it cant be changed.\r\n        NetworkSet = true;\r\n    }\r\n    \r\n        event NetworkCreated (uint ins, uint out, address owner);\r\n    \r\n}\r\n\r\n",
  "sourcePath": "C:\\Users\\Khera\\Documents\\GitHub\\TronAi\\Solidity\\contracts\\TronAiNeuralNetwork.sol",
  "compiler": {
    "name": "solc",
    "version": "0.4.24-develop.2018.8.28+commit.3ba0cdec.mod.Emscripten.clang"
  },
  "schemaVersion": "2.0.1",
  "updatedAt": "2019-01-01T19:00:54.282Z"
}